:100000000C942A000C9443050C9447000C94470070
:100010000C9447000C9447000C9447000C94470044
:100020000C9447000C9447000C9447000C94470034
:100030000C9447000C94A1050C9447000C94CE0539
:100040000C9447000C9447000C9447000C94470014
:100050000C94470011241FBECFE5D8E0DEBFCDBF12
:1000600012E0A0E6B0E0E0EBFDE002C005900D92EA
:10007000A832B107D9F722E0A8E2B2E001C01D9290
:10008000A533B207E1F70E940C040C94D6060C9439
:10009000000081E0809328020895EF92FF921F9361
:1000A000CF93DF9300D0CDB7DEB77C0119821A82DF
:1000B00060E080E00E94410384EB91E00E946003D5
:1000C00060E081E00E94410387EC91E00E946003C0
:1000D00068E082E00E94410332C00E9439028A83B4
:1000E0002FEF81EE94E0215080409040E1F700C076
:1000F00000008A81843619F16981685F82E00E947C
:1001000041032FEF81EE94E0215080409040E1F7D1
:1001100000C000008A810E94FC022FEF81EE94E073
:10012000215080409040E1F700C000008981F70134
:10013000E80FF11D8A81808389818F5F898389819E
:10014000843059F610E00BC0812F90E0F701E80FE2
:10015000F91F6081845D9E4F0E9419051F5F143056
:1001600098F381E080932A0260912A0280E391E073
:100170000E9419050F900F90DF91CF911F91FF9072
:10018000EF900895EF92FF920F931F93CF93DF9319
:1001900000D000D0CDB7DEB77C0119821A8284E688
:1001A0008B831C827DC081E00E94B70260E080E00A
:1001B0000E9441038CED91E00E94600368E081E0C1
:1001C0000E94410384E68B8329C00E9439028B83FD
:1001D0008B81843619F16C81685F81E00E94410354
:1001E0002FEF81EE94E0215080409040E1F700C075
:1001F00000008B810E94FC022FEF81EE94E02150E1
:1002000080409040E1F700C000008C81F701E80FCA
:10021000F11D8B8180838C818F5F8C838C818430F6
:1002200018F48A81882389F281E08A8310E032C041
:10023000812F90E0F701E80FF91F0081845D9E4F48
:100240000E942505081304C081E08A831F5F22C035
:100250001A8281E00E94B70263E080E00E944103BD
:1002600080EF91E00E9460032FEF83ED90E3215037
:1002700080409040E1F700C0000081E00E94B7029A
:100280002FEF83ED90E3215080409040E1F700C0D4
:10029000000002C0143060F289818F5F89831C8264
:1002A0008981833021F08A81882309F47CCF8A8177
:1002B0000F900F900F900F90DF91CF911F910F91A2
:1002C000FF90EF90089581111EC081E00E94B70257
:1002D00063E080E00E9441038FEF91E00E946003A1
:1002E0000E94F0012FEF83E294EF21508040904074
:1002F000E1F700C000000E94F6018FE292E00E9448
:10030000C2000E946301089581E00E94B70264E088
:1003100080E00E9441038EE092E00E94600363E06F
:1003200081E00E9441038AE192E00E9460030E9402
:10033000020410922802809128028823E1F30E948F
:10034000070481E080932802089581E40E949D05BE
:1003500008950E94FC010E9497030E94EA010E94F6
:10036000F20380E895E20E946A0589E490E00E9429
:100370003C050E942E050E94380560E082E391E072
:100380000E94190582E391E00E942505811104C0B5
:100390008BE292E00E944D008FE292E00E94C20048
:1003A00080932902809129020E9463010E948401A6
:1003B0000E94A50108958FE292E00E94C2008093FE
:1003C0002902809129020E9463010E9484010E94F7
:1003D000A501089541E066E082E00E9411040895BD
:1003E00041E066E082E00E947E04089540E066E01D
:1003F00082E00E947E04089540E067E083E00E946E
:10040000110440E066E083E00E94110440E065E0F2
:1004100083E00E94110440E063E083E00E94110445
:1004200041E065E082E00E94110441E064E082E086
:100430000E94110441E063E082E00E94110441E067
:1004400062E082E00E94110441E065E082E00E94E7
:100450007E0441E064E082E00E947E0441E063E0CB
:1004600082E00E947E0441E062E082E00E947E041D
:1004700008950F931F93CF93DF9310E005E02CC0F6
:1004800040E0602F82E00E947E04C0E01CC0D7E004
:10049000DC1B6D2F83E00E94EB04811113C004C0AC
:1004A0006D2F83E00E94EB048823D1F3E12FF0E06D
:1004B000EE0FFF1FEE0FFF1FE05AFF4FEC0FF11D75
:1004C00080813BC0CF5FC33010F341E0602F82E0FA
:1004D0000E947E0401501F5F143090F2D0E0C5E00E
:1004E00029C040E06C2F82E00E947E0463E083E03C
:1004F0000E94EB04811117C004C063E083E00E94F6
:10050000EB048823D1F38FE39FE10197F1F700C05B
:100510000000ED2FF0E0EE0FFF1FEE0FFF1FE05A7F
:10052000FF4F83810AC041E06C2F82E00E947E046D
:10053000C150DF5FD430A8F284E6DF91CF911F91E4
:100540000F91089541E062E080E00E947E0485E022
:100550008A95F1F7000040E062E080E00E947E04AE
:100560008FE39FE10197F1F700C000000895CF935A
:10057000C82F40E063E080E00E947E04C4FB442773
:1005800040F960E081E00E947E04C5FB442740F909
:1005900061E081E00E947E04C6FB442740F962E0EE
:1005A00081E00E947E044C2F441F4427441F64E0D6
:1005B00081E00E947E040E94A2024C2F417060E004
:1005C00081E00E947E04C1FB442740F961E081E0A4
:1005D0000E947E04C2FB442740F962E081E00E9451
:1005E0007E04C3FB442740F964E081E00E947E045E
:1005F0000E94A202CF910895CF93C82F41E063E0FB
:1006000080E00E947E04C4FB442740F960E081E062
:100610000E947E04C5FB442740F961E081E00E940E
:100620007E04C6FB442740F962E081E00E947E041C
:100630004C2F441F4427441F64E081E00E947E0445
:100640000E94A2024C2F417060E081E00E947E0473
:10065000C1FB442740F961E081E00E947E04C2FBB7
:10066000442740F962E081E00E947E04C3FB4427F6
:1006700040F964E081E00E947E040E94A202CF91D2
:100680000895813059F028F0823069F0833081F08C
:10069000089580E8860F0E94B702089580EC860FC7
:1006A0000E94B702089584E9860F0E94B702089558
:1006B00084ED860F0E94B70208950E94FC020895FF
:1006C000CF93DF93EC0103C00E945D0321968881E4
:1006D0008111FACFDF91CF9108950F931F93CF939C
:1006E000DF93D0E01DC00D2F10E0C8010896880FE1
:1006F000880F880F0E94B702C0E00FC0F801EE0F0C
:10070000FF1FEE0FFF1FEE0FFF1FE059FF4FEC0F13
:10071000F11D80810E945D03CF5FC83078F3DF5FF9
:10072000D83008F3DF91CF911F910F91089541E0E8
:1007300063E080E00E94110441E062E080E00E94FA
:10074000110441E060E081E00E94110441E061E0B9
:1007500081E00E94110441E062E081E00E94110406
:1007600041E064E081E00E94110482E00E94B7024F
:100770008FE19EE40197F1F700C0000083E00E9442
:10078000B7028FE891E00197F1F700C0000082E026
:100790000E94B7028FE59AEE0197F1F700C00000C2
:1007A00088E20E94B7028FE99FE00197F1F700C04D
:1007B00000008CE00E94B7028FE99FE00197F1F7FB
:1007C00000C0000081E00E94B7028FE99FE001971E
:1007D000F1F700C000000E946D0360E080E00E941D
:1007E0004103089582E28FBD8BE18EBD1DBC1CBC10
:1007F00086E893E197BD86BD41E064E083E00E9416
:100800001104089580E792E099BD88BD08958CE7B2
:1008100090E099BD88BD08950E94A9010E94DB0166
:10082000FDCF813001F130F08230B1F1833009F435
:100830004CC00895413059F42AB381E090E002C0E1
:10084000880F991F6A95E2F7822B8ABB08952AB315
:1008500081E090E002C0880F991F6A95E2F78095C9
:1008600082238ABB0895413059F427B381E090E098
:1008700002C0880F991F6A95E2F7822B87BB089503
:1008800027B381E090E002C0880F991F6A95E2F7D4
:100890008095822387BB0895413059F424B381E0C9
:1008A00090E002C0880F991F6A95E2F7822B84BB03
:1008B000089524B381E090E002C0880F991F6A95E3
:1008C000E2F78095822384BB0895413059F421B327
:1008D00081E090E002C0880F991F6A95E2F7822BB1
:1008E00081BB089521B381E090E002C0880F991F79
:1008F0006A95E2F78095822381BB0895813001F1EA
:1009000030F08230B1F1833009F44CC008954111C8
:100910000CC02BB381E090E002C0880F991F6A954C
:10092000E2F7809582238BBB08952BB381E090E0A2
:1009300002C0880F991F6A95E2F7822B8BBB08953E
:1009400041110CC028B381E090E002C0880F991FCC
:100950006A95E2F78095822388BB089528B381E0E9
:1009600090E002C0880F991F6A95E2F7822B88BB3E
:10097000089541110CC025B381E090E002C0880FBA
:10098000991F6A95E2F78095822385BB089525B368
:1009900081E090E002C0880F991F6A95E2F7822BF0
:1009A00085BB089541110CC022B381E090E002C0E4
:1009B000880F991F6A95E2F78095822382BB08957C
:1009C00022B381E090E002C0880F991F6A95E2F798
:1009D000822B82BB0895813079F028F08230A9F013
:1009E0008330E1F024C089B390E002C095958795EB
:1009F0006A95E2F78170089586B390E002C09595FC
:100A000087956A95E2F78170089583B390E002C0FC
:100A1000959587956A95E2F78170089580B390E087
:100A200002C0959587956A95E2F78170089580E0F8
:100A30000895E199FECF9FBB8EBB6DBB8CB38460E4
:100A40008CBB8CB382608CBB0895E199FECF9FBBB9
:100A50008EBB8CB381608CBB8DB308958FB78068DB
:100A60008FBF8BB78F7B8BBF8AB780648ABF089597
:100A70008BB780648BBF0895009721F09093340268
:100A80008093330208951F920F920FB60F92112494
:100A90002F933F934F935F936F937F938F939F9386
:100AA000AF93BF93EF93FF93E0913302F091340241
:100AB0000995FF91EF91BF91AF919F918F917F9198
:100AC0006F915F914F913F912F910F900FBE0F90BB
:100AD0001F901895A0E0B0E0880F991FAA1FBB1FB8
:100AE000880F991FAA1FBB1F9C01AD01220F331F46
:100AF000441F551F220F331F441F551F60E074E22F
:100B000084EF90E00E94B406CA01B90161507109F6
:100B1000810991090E9411060E944E0669B970BDB3
:100B200088E18AB980B5866880BD78948AB180688A
:100B30008AB98AB180648AB908955D9BFECF8CB969
:100B400008951F920F920FB60F9211242F938F9337
:100B50009F93EF93FF93E0913201F0913301CF0126
:100B6000019690933301809332018CB18083809100
:100B7000320190913301845B914031F484E391E040
:100B80009093330180933201FF91EF919F918F9168
:100B90002F910F900FBE0F901F9018951F920F92DC
:100BA0000FB60F9211242F933F934F935F936F9340
:100BB0007F938F939F93AF93BF93EF93FF93809116
:100BC000B0009091B10001969093B1008093B00075
:100BD0008253914031F482EB90E09093B100809386
:100BE000B000E091B000F091B10080818B3131F420
:100BF0003196F093B100E093B00002C00E949D05D1
:100C0000FF91EF91BF91AF919F918F917F916F91E4
:100C10005F914F913F912F910F900FBE0F901F90BA
:100C20001895E89409C097FB3EF4909580957095CF
:100C300061957F4F8F4F9F4F9923A9F0F92F96E928
:100C4000BB279395F695879577956795B795F1119D
:100C5000F8CFFAF4BB0F11F460FF1BC06F5F7F4F3A
:100C60008F4F9F4F16C0882311F096E911C077234C
:100C700021F09EE8872F762F05C0662371F096E855
:100C8000862F70E060E02AF09A95660F771F881F24
:100C9000DAF7880F9695879597F908950E9493063D
:100CA000A8F19E57B0F1985160F039F1983070F585
:100CB000092E9927660F771F881F991F0A94D1F76D
:100CC0001CC0BB27993F4CF4B111B1E0B62B672F84
:100CD000782F8827985FB1F708C086957795679534
:100CE000B79508F4B1609395C1F7BB0F30F411F4D8
:100CF00060FF03C06F5F7F4F8F4F3EF490958095EC
:100D0000709561957F4F8F4F9F4F089568940C9415
:100D1000AE060C94AD0657FD9058440F551F59F080
:100D20005F3F71F04795880F97FB991F61F09F3FD8
:100D300079F087950895121613061406551FF2CF01
:100D40004695F1DF08C0161617061806991FF1CF51
:100D500086957105610508940895E894BB27662778
:100D60007727CB0197F90895A1E21A2EAA1BBB1B86
:100D7000FD010DC0AA1FBB1FEE1FFF1FA217B30767
:100D8000E407F50720F0A21BB30BE40BF50B661F7D
:100D9000771F881F991F1A9469F760957095809541
:100DA00090959B01AC01BD01CF010895F894FFCF50
:100DB0003132332B3435362D3738392A23303D2F15
:100DC0000A1F1F1F1F0E0400041F11111111111FF4
:100DD000041F111111111F1F041F1111111F1F1FBB
:100DE000041F11111F1F1F1F041F111F1F1F1F1F73
:100DF000041F1F1F1F1F1F1F0000010105051515E0
:100E0000B2001B0000000000000000000000000015
:100E100000000000000000000000000000000000D2
:100E200000000000000000000000000000000000C2
:100E300000000000000000000000000000000000B2
:100E400000000000000000000000000000000000A2
:100E50000000000000000000000000000000000092
:100E60000000000000000000000000000000000082
:100E70000000000000000000000000000000000072
:100E8000000034011B000000000000000000000012
:100E90000000000000000000000000000000000052
:100EA0000000000000000000000000000000000042
:100EB0000000000000000000000000000000000032
:100EC0000000000000000000000000000000000022
:100ED0000000000000000000000000000000000012
:100EE0000000000000000000000000000000000002
:100EF00000000000000000000000000000000000F2
:100F000000000000456E746572204E6577205061C8
:100F10007373776F726400456E7465722034204E6F
:100F2000756D62657273204F6E6C7900456E7465E5
:100F30007220596F75722050617373776F726400FD
:100F400057524F4E472050415353574F524400542D
:100F50006865667420414C41524D2121210057653E
:100F60006C636F6D652053697200506C65617365C9
:080F700020456E74657221003A
:00000001FF
