S01B00004E54495F536D617274486F6D655F536C6176652E73726563D5
S11300000C942A000C9447000C9447000C9447006D
S11300100C94ED0A0C94C60A0C94F2090C941B0A75
S11300200C94440A0C946D0A0C946C090C944509C4
S11300300C9447000C94770B0C9447000C94A40B7D
S11300400C94EC070C9447000C9447000C94470064
S11300500C94470011241FBECFE5D8E0DEBFCDBF0E
S113006012E0A0E6B0E0EEE5FCE102C005900D92DE
S1130070AA32B107D9F722E0AAE2B2E001C01D9288
S1130080A435B207E1F70E94B4070C942D0E0C942A
S113009000000E941F090E94A20A0E94D8070E9421
S11300A0B9070E941B090E94F00367E080E00E94E8
S11300B02B010E94260361E081E00E94D00282EBC2
S11300C091E00E94EF020E949A040E94790780E85E
S11300D095E20E94140B0E949A040E94F5010E946A
S11300E04B0B8823E1F30E94560B8134C1F708952A
S11300F060E082E00E94D00284EC91E00E94EF0272
S113010080E00E94BF014AE06BE272E090E00E944E
S1130110F80D0E94EF0287E292E00E94EF022FEFB7
S113012081EE94E0215080409040E1F700C000004F
S11301308AEC91E00E94EF020E94DA014AE06BE24D
S113014072E090E00E94F80D0E94EF0281ED91E0D0
S11301500E94EF020895CF92DF92EF92FF920E94E5
S11301608F070E94AB076B017C0160E083E00E9473
S1130170D00283ED91E00E94EF020E94AB07DC0104
S1130180CB014AE06BE272E00E94F80D0E94EF029C
S11301908DED91E00E94EF0284E1C816D104E104E0
S11301A0F10468F480912A02811109C048E651E003
S11301B060E00E94E40681E080932A0212C085E197
S11301C0C816D104E104F10460F080912A02813060
S11301D041F448E651E061E080E00E94E4061092B8
S11301E02A02FF90EF90DF90CF9008950E9445047B
S11301F090933802809337029C01245131092F31A6
S11302003105A0F44FEF489F9001499F300D112410
S11302102C5E3341A9E8B8E80E94E90D92958295D5
S11302208F7089279F708927682F01C060E084E060
S11302300E940502089580914002909141020E941B
S1130240810308950E94F6000E941B010E94780019
S11302500E94AB0008958093360260933A02089599
S113026041E060913A02809136020E94130840E016
S113027060913A02809136020E9480082FEF89EF44
S113028090E0215080409040E1F700C0000041E040
S113029060913A02809136020E948008089540E0FD
S11302A060913A02809136020E94130860913A02EA
S11302B0809136020E94ED088111F8CF60913A02D4
S11302C0809136020E94ED088823C1F360913A02BE
S11302D0809136020E94ED088111F8CF0895CF93E2
S11302E0DF93C0E0D0E02AC060913A0280913602E8
S11302F00E94ED088823C1F380EA8A95F1F76091A2
S11303003A02809136020E94ED08882349F08091D8
S1130310390290E0880F991F81608093390205C0EB
S113032080913902880F8093390260913A0280915A
S113033036020E94ED088111F8CF2196C830D1050C
S11303409CF280913902DF91CF9108950E9430018F
S11303500E944F010E946F0180933E020E946F0130
S113036080933B020E946F0180933D020E946F01C3
S113037080933F020E946F0180933C0208950E9483
S1130380A60160913D0270E0762F662780913F02BE
S1130390680F711D072E000C880B990B0E94910C9D
S11303A020E030E040E251E40E94E70B0E94590C47
S11303B0862F08950E94A60160913E0270E0762F78
S11303C0662780913B02680F711D072E000C880B75
S11303D0990B0E94910C20E030E040E251E40E942D
S11303E0E70B0E94590C862F089541E063E081E0F9
S11303F00E94130841E065E081E00E94130841E097
S113040066E081E00E9413080895CF93DF93C82F1C
S1130410D62F41E066E081E00E948008C43051F0AC
S1130420C73071F0C13091F440E066E081E00E9491
S1130430800811C041E065E081E00E9480080BC0A3
S113044040E065E081E00E94800805C040E066E08D
S113045081E00E9480088D2F0E944309DF91CF9193
S1130460089541E062E080E00E94800885E08A957A
S1130470F1F7000040E062E080E00E9480088FE332
S11304809FE10197F1F700C000000895CF93C82FB2
S113049040E063E080E00E948008C4FB442740F908
S11304A060E081E00E948008C5FB442740F961E0D8
S11304B081E00E948008C6FB442740F962E081E0A5
S11304C00E9480084C2F441F4427441F64E081E0AD
S11304D00E9480080E9431024C2F417060E081E04C
S11304E00E948008C1FB442740F961E081E00E943A
S11304F08008C2FB442740F962E081E00E94800842
S1130500C3FB442740F964E081E00E9480080E9414
S11305103102CF910895CF93C82F41E063E080E08A
S11305200E948008C4FB442740F960E081E00E94F7
S11305308008C5FB442740F961E081E00E948008FF
S1130540C6FB442740F962E081E00E9480084C2FFA
S1130550441F4427441F64E081E00E9480080E94F5
S113056031024C2F417060E081E00E948008C1FBA1
S1130570442740F961E081E00E948008C2FB4427DF
S113058040F962E081E00E948008C3FB442740F9FF
S113059064E081E00E9480080E943102CF910895B6
S11305A0813059F028F0823069F0833081F0089569
S11305B080E8860F0E944602089580EC860F0E9410
S11305C04602089584E9860F0E944602089584ED48
S11305D0860F0E94460208950E948B020895CF93CD
S11305E0DF93EC0103C00E94EC0221968881811103
S11305F0FACFDF91CF9108950F931F93CF93DF9399
S1130600D0E01DC00D2F10E0C8010896880F880F98
S1130610880F0E944602C0E00FC0F801EE0FFF1FD2
S1130620EE0FFF1FEE0FFF1FE05AFF4FEC0FF11DFF
S113063080810E94EC02CF5FC83078F3DF5FD8304E
S113064008F3DF91CF911F910F91089541E063E08A
S113065080E00E94130841E062E080E00E941308F9
S113066041E060E081E00E94130841E061E081E044
S11306700E94130841E062E081E00E94130841E017
S113068064E081E00E94130882E00E9446028FE148
S11306909EE40197F1F700C0000083E00E94460247
S11306A08FE891E00197F1F700C0000082E00E941A
S11306B046028FE59AEE0197F1F700C0000088E248
S11306C00E9446028FE99FE00197F1F700C0000005
S11306D08CE00E9446028FE99FE00197F1F700C089
S11306E0000081E00E9446028FE99FE00197F1F744
S11306F000C000000E94FC0260E080E00E94D00282
S1130700089587B18E7F87B987B18D7F87B987B107
S11307108B7F87B987B1877F87B987B18F7E87B988
S113072060E070E080E090E00E94DC070E94E20755
S11307309C012B5832402D353140C0F460E081E0FB
S11307400E94D00281EE91E00E94EF0280E00E94BC
S1130750050483E00E9405048FEF93EC29E08150A7
S113076090402040E1F700C0000008959C012D5204
S113077031402D353140C0F460E081E00E94D00268
S113078084EF91E00E94EF0280E00E94050483E080
S11307900E9425048FEF93EC29E081509040204083
S11307A0E1F700C00000089501978B329140B8F43E
S11307B060E081E00E94D00287E092E00E94EF02B4
S11307C080E00E94250483E00E9425048FEF93ECCF
S11307D029E0815090402040E1F700C000000895D6
S11307E041E067E081E00E94130841E064E080E0BA
S11307F00E94130841E065E080E00E94130841E094
S113080066E080E00E9413080895813061F028F0CA
S1130810823079F0833099F0089541E067E081E017
S11308200E948008089541E064E080E00E9480080E
S1130830089541E065E080E00E948008089541E069
S113084066E080E00E9480080895813061F028F01D
S1130850823079F0833099F0089540E067E081E0D8
S11308600E948008089540E064E080E00E948008CF
S1130870089540E065E080E00E948008089540E02B
S113088066E080E00E94800808950F931F93CF9341
S1130890DF9300D000D01F92CDB7DEB787B181605F
S11308A087B987B18D7F87B987B18B7F87B987B1C6
S11308B0877F87B987B18F7E87B90E94DC070E9442
S11308C0E2079C01ADECBCEC0E94E90D969587957E
S11308D096958795969587958C010C5E1F4F60E0E1
S11308E080E00E94D0028AE192E00E94EF024AE096
S11308F0BE016F5F7F4FC8010E94F80DCE010196C3
S11309000E94EF0286E292E00E94EF022FEF83EC56
S113091099E0215080409040E1F700C00000C801F8
S11309200F900F900F900F900F90DF91CF911F9128
S11309300F910895CF92DF92FF920F931F93CF935D
S1130940DF93F12C87C00F2D10E06801CC0CDD1C67
S1130950E601C00FD11FCC0FDD1FCC0FDD1FC05629
S1130960DF4F698141E088810E9413086B8141E077
S11309708A810E9413086D8141E08C810E941308D2
S11309806F8141E08E810E941308698141E0888172
S11309900E9480086B8141E08A810E9480086D81F9
S11309A041E08C810E9480086F8141E08E810E9429
S11309B08008698140E088810E9480086F8141E05D
S11309C08E810E9480082FEF84E39CE021508040B8
S11309D09040E1F700C000006B8140E08A810E94F2
S11309E08008698141E088810E9480082FEF84E3B8
S11309F09CE0215080409040E1F700C000006D81F0
S1130A0040E08C810E9480086B8141E08A810E94D1
S1130A1080082FEF84E39CE0215080409040E1F770
S1130A2000C000006F8140E08E810E9480086D81CB
S1130A3041E08C810E9480082FEF84E39CE02150E8
S1130A4080409040E1F700C0000083E090E09B8785
S1130A508A87F394FF2009F476CFDF91CF911F9119
S1130A600F91FF90DF90CF900895EF92FF920F9334
S1130A701F93CF93DF93C82FD62F6111CBC0082FBC
S1130A8010E0F801EE0FFF1FE00FF11FEE0FFF1F44
S1130A90EE0FFF1FE056FF4F8285938583709927E1
S1130AA08130910509F447C000F18230910509F4C1
S1130AB068C0039709F08AC07F01618140E08081AA
S1130AC00E948008F701678141E086810E948008C6
S1130AD0F701638141E082810E9480088FE19EE4F6
S1130AE00197F1F700C0000071C07801EE0CFF1C03
S1130AF0E00EF11EC701880F991F880F991FFC0192
S1130B00E056FF4F7F01638140E082810E948008AC
S1130B10F701618141E080810E948008F7016581CD
S1130B2041E084810E9480088FE19EE40197F1F7FF
S1130B3000C000004BC07801EE0CFF1CE00EF11E5B
S1130B40C701880F991F880F991FFC01E056FF4FBA
S1130B507F01658140E084810E948008F701638100
S1130B6041E082810E948008F701678141E086812B
S1130B700E9480088FE19EE40197F1F700C0000015
S1130B8025C07801EE0CFF1CE00EF11EC701880F92
S1130B90991F880F991FFC01E056FF4F7F01678161
S1130BA040E086810E948008F701658141E08481EC
S1130BB00E948008F701618141E080810E948008E1
S1130BC08FE19EE40197F1F700C00000F801EE0FF9
S1130BD0FF1FE00FF11FEE0FFF1FEE0FFF1FE05688
S1130BE0FF4F22853385C9010196938782878085CB
S1130BF0918501972817390769F4F801EE0FFF1F53
S1130C00E00FF11FEE0FFF1FEE0FFF1FE056FF4F27
S1130C1013861286D13009F0D0C0D0E0FE01EE0F69
S1130C20FF1FEC0FFD1FEE0FFF1FEE0FFF1FE0561F
S1130C30FF4F82859385837099278130910549F010
S1130C4008F473C08230910541F1039709F449C057
S1130C508FC08E01000F111F0C0F1D1F000F111FDD
S1130C60000F111F00561F4FF801618140E0808181
S1130C700E948008F801678141E086810E94800813
S1130C80F801638141E082810E9480088FE19EE443
S1130C900197F1F700C000006BC08E01000F111F17
S1130CA00C0F1D1F000F111F000F111F00561F4FA7
S1130CB0F801638140E082810E948008F80161812B
S1130CC041E080810E948008F801658141E08481CF
S1130CD00E9480088FE19EE40197F1F700C00000B4
S1130CE047C08E01000F111F0C0F1D1F000F111F95
S1130CF0000F111F00561F4FF801658140E08481E9
S1130D000E948008F801638141E082810E9480088A
S1130D10F801678141E086810E9480088FE19EE4AA
S1130D200197F1F700C0000023C08E01000F111FCE
S1130D300C0F1D1F000F111F000F111F00561F4F16
S1130D40F801678140E086810E948008F80165818E
S1130D5041E084810E948008F801618141E0808142
S1130D600E9480088FE19EE40197F1F700C0000023
S1130D70FE01EE0FFF1FEC0FFD1FEE0FFF1FEE0F26
S1130D80FF1FE056FF4F828593859C012150310956
S1130D9033872287892B89F49E01220F331FF9019F
S1130DA0EC0FFD1FEE0FFF1FEE0FFF1FE056FF4F6E
S1130DB080859185019793878287DF91CF911F91D9
S1130DC00F91FF90EF900895CF92DF92EF92FF92F0
S1130DD00F931F93CF93DF93182F062FC0E0D0E01B
S1130DE005C0602F812F0E94350521966E01E12CEC
S1130DF0F12C812F90E0FC01EE0FFF1FE80FF91F8B
S1130E00EE0FFF1FEE0FFF1FE056FF4F20853185C9
S1130E10ACE3B0E00E94E90D28E631E040E050E0A8
S1130E200E94C70DC216D306E406F506D0F2DF9180
S1130E30CF911F910F91FF90EF90DF90CF90089585
S1130E4080913402909135020196909335028093FB
S1130E50340208958091330281110EC080E090E045
S1130E600E94D909109235021092340281E08093D5
S1130E7033020E94960A089520913402309135027B
S1130E80AFEFBFEF0E94E90D26B537B5DC01CB010A
S1130E90820F931FA11DB11DBC01CD01052E5AE087
S1130EA0660F771F881F991F5A95D1F7502D0E94FE
S1130EB0910C20E03CEF45E057E40E945A0D20E0FD
S1130EC034E244EF5BE40E94E70B0E94600C609301
S1130ED02F02709330028093310290933202109269
S1130EE03502109234021092330280E00E94960A76
S1130EF008958AE297E00E94EB0980E297E00E945D
S1130F00E4090E9493090E94DC090E94E0090E94FE
S1130F101B0941E067E082E00E941308089541E064
S1130F2067E082E00E94800885E38A95F1F700007B
S1130F3040E067E082E00E94800880E090E00E9448
S1130F40D90980E00E94960A88B7806288BF88B772
S1130F50846088BF089560912F027091300280915F
S1130F6031029091320208950E9449000E942201A8
S1130F70FDCF87B1806487B987B18F7787B987B18F
S1130F808E7F87B987B18D7F87B987B18B7F87B90A
S1130F9087B1877F87B987B18F7E87B986B1816032
S1130FA086B986B1826086B986B1846086B90895AF
S1130FB086B1806886B9089586B1806486B9369909
S1130FC0FECF08950E94D80724B185B190E0982FF0
S1130FD08827820F911D08951F920F920FB60F92CA
S1130FE011242F933F934F935F936F937F938F932A
S1130FF09F93AF93BF93EF93FF93E0914202F091DD
S113100043020995FF91EF91BF91AF919F918F9109
S11310107F916F915F914F913F912F910F900FBEF0
S11310200F901F901895813001F130F08230B1F1AA
S1131030833009F44CC00895413059F42AB381E057
S113104090E002C0880F991F6A95E2F7822B8ABB51
S113105008952AB381E090E002C0880F991F6A9531
S1131060E2F7809582238ABB0895413059F427B36F
S113107081E090E002C0880F991F6A95E2F7822B05
S113108087BB089527B381E090E002C0880F991FC1
S11310906A95E2F78095822387BB0895413059F41D
S11310A024B381E090E002C0880F991F6A95E2F7AB
S11310B0822B84BB089524B381E090E002C0880FA2
S11310C0991F6A95E2F78095822384BB0895413085
S11310D059F421B381E090E002C0880F991F6A950A
S11310E0E2F7822B81BB089521B381E090E002C036
S11310F0880F991F6A95E2F78095822381BB089532
S1131100813001F130F08230B1F1833009F44CC008
S1131110089541110CC02BB381E090E002C0880F08
S1131120991F6A95E2F7809582238BBB08952BB3B0
S113113081E090E002C0880F991F6A95E2F7822B44
S11311408BBB089541110CC028B381E090E002C02C
S1131150880F991F6A95E2F78095822388BB0895CA
S113116028B381E090E002C0880F991F6A95E2F7E6
S1131170822B88BB089541110CC025B381E090E017
S113118002C0880F991F6A95E2F78095822385BB78
S1131190089525B381E090E002C0880F991F6A95F5
S11311A0E2F7822B85BB089541110CC022B381E084
S11311B090E002C0880F991F6A95E2F78095822318
S11311C082BB089522B381E090E002C0880F991F8A
S11311D06A95E2F7822B82BB0895813079F028F07A
S11311E08230A9F08330E1F024C089B390E002C0DA
S11311F0959587956A95E2F78170089586B390E096
S113120002C0959587956A95E2F78170089583B336
S113121090E002C0959587956A95E2F781700895EC
S113122080B390E002C0959587956A95E2F7817046
S1131230089580E008958FB780688FBF089583B7BD
S1131240806483BF83B7886083BF83B7816083BFB3
S113125083B78D7F83BF83B7846083BF83B78F7E5B
S113126083BF83B7806283BF89B78E7F89BF89B705
S11312708D7F89BF88B7816088BF88B7826088BF47
S113128012BE1CBE08958CBF08951F920F920FB614
S11312900F9211242F933F934F935F936F937F93F8
S11312A08F939F93AF93BF93EF93FF93E091460285
S11312B0F09147020995FF91EF91BF91AF919F91F2
S11312C08F917F916F915F914F913F912F910F90EB
S11312D00FBE0F901F9018951F920F920FB60F928A
S11312E011242F933F934F935F936F937F938F9327
S11312F09F93AF93BF93EF93FF93E0914402F091D8
S113130045020995FF91EF91BF91AF919F918F9104
S11313107F916F915F914F913F912F910F900FBEED
S11313200F901F9018958EB5887F8EBD8EB5856001
S11313308EBD8FB58E7F8FBD8FB58D7F8FBD8FB5E1
S11313408F7E8FBD8FB58F7D8FBD8FB58F7B8FBD0A
S11313508FB58F778FBD8EB5877F8EBD8EB58F7E0F
S11313608EBD8FB58F7E8FBD8FB580628FBD8EB5DC
S113137080648EBD89B78B7F89BF89B7877F89BF1A
S113138089B78F7E89BF89B78F7D89BF88B784600D
S113139088BF88B7886088BF88B7806188BF88B7EE
S11313A0806288BF1DBC1CBC1BBC1ABC19BC18BC09
S11313B008959DBD8CBD089589B7846089BF089543
S11313C089B7806289BF0895009721F090934B02FA
S11313D080934A020895009721F0909349028093E4
S11313E0480208951F920F920FB60F9211242F9363
S11313F03F934F935F936F937F938F939F93AF9399
S1131400BF93EF93FF93E0914802F0914902309724
S113141009F00995FF91EF91BF91AF919F918F9141
S11314207F916F915F914F913F912F910F900FBEDC
S11314300F901F9018951F920F920FB60F921124C0
S11314402F933F934F935F936F937F938F939F93C8
S1131450AF93BF93EF93FF93E0914C02F0914D0251
S1131460309709F00995FF91EF91BF91AF919F914A
S11314708F917F916F915F914F913F912F910F9039
S11314800FBE0F901F9018951F920F920FB60F92D8
S113149011242F933F934F935F936F937F938F9375
S11314A09F93AF93BF93EF93FF93E0914E02F0911C
S11314B04F02309709F00995FF91EF91BF91AF91D9
S11314C09F918F917F916F915F914F913F912F9158
S11314D00F900FBE0F901F9018951F920F920FB68A
S11314E00F9211242F933F934F935F936F937F93A6
S11314F08F939F93AF93BF93EF93FF93E0914A022F
S1131500F0914B02309709F00995FF91EF91BF914B
S1131510AF919F918F917F916F915F914F913F9187
S11315202F910F900FBE0F901F901895813021F4CA
S11315308EB58F7B8EBD0895811103C08EB58064F6
S11315408EBD089585B5886085BD85B5806485BDEB
S113155085B5816085BD85B58D7F85BD85B5846084
S113156085BD85B58F7E85BD85B5806285BD89B70E
S11315708F7B89BF89B78F7789BF88B7806488BF1D
S113158088B7806888BF14BC13BC08951F920F925B
S11315900FB60F9211242F933F934F935F936F9342
S11315A07F938F939F93AF93BF93EF93FF93E091B8
S11315B05202F09153020995FF91EF91BF91AF91BF
S11315C09F918F917F916F915F914F913F912F9157
S11315D00F900FBE0F901F9018951F920F920FB689
S11315E00F9211242F933F934F935F936F937F93A5
S11315F08F939F93AF93BF93EF93FF93E091500228
S1131600F09151020995FF91EF91BF91AF919F9194
S11316108F917F916F915F914F913F912F910F9097
S11316200FBE0F901F901895A0E0B0E0880F991F8F
S1131630AA1FBB1F880F991FAA1FBB1F9C01AD01C6
S1131640220F331F441F551F220F331F441F551FE2
S113165060E074E284EF90E00E94C70DCA01B90112
S113166061507109810991090E948F0C0E941D0D1E
S113167069B970BD88E18AB980B5866880BD7894FF
S11316808AB180688AB98AB180648AB908955D9BF9
S1131690FECF8CB90895E0912E01F0912F01808145
S11316A08B3111F480E0089581E008950E944B0B82
S11316B08823D9F0E0912E01F0912F0180819BE1E4
S11316C0908320912E0130912F012F5F3F4F309353
S11316D02F0120932E01225B314041F422E331E0BB
S11316E030932F0120932E0108958BE108951F92CA
S11316F00F920FB60F9211242F938F939F93EF9312
S1131700FF93E0913001F0913101CF010196909364
S11317103101809330018CB18083809130019091AC
S11317203101825B914031F482E391E09093310185
S113173080933001FF91EF919F918F912F910F90A2
S11317400FBE0F901F9018951F920F920FB60F9215
S113175011242F933F934F935F936F937F938F93B2
S11317609F93AF93BF93EF93FF938091AC009091BD
S1131770AD0001969093AD008093AC008E529140E1
S113178031F48EEA90E09093AD008093AC00E09148
S1131790AC00F091AD0080818B3131F43196F0933F
S11317A0AD00E093AC0002C00E94470BFF91EF91A3
S11317B0BF91AF919F918F917F916F915F914F9165
S11317C03F912F910F900FBE0F901F9018950E947C
S11317D0FB0B0C94E30C0E94DC0C58F00E94D50C1B
S11317E040F029F45F3F29F00C94CC0C51110C9477
S11317F0170D0C94D20C0E94F40C68F39923B1F3E6
S1131800552391F3951B550BBB27AA276217730722
S1131810840738F09F5F5F4F220F331F441FAA1FB6
S1131820A9F335D00E2E3AF0E0E832D09150504072
S1131830E695001CCAF72BD0FE2F29D0660F771F20
S1131840881FBB1F261737074807AB07B0E809F006
S1131850BB0B802DBF01FF2793585F4F3AF09E3F8B
S1131860510578F00C94CC0C0C94170D5F3FE4F305
S1131870983ED4F3869577956795B795F7959F5FCE
S1131880C9F7880F911D9695879597F90895E1E01A
S1131890660F771F881FBB1F621773078407BA0779
S11318A020F0621B730B840BBA0BEE1F88F7E095D4
S11318B008950E94600C6894B1110C94170D08955A
S11318C00E94FC0C88F09F5798F0B92F9927B751C4
S11318D0B0F0E1F0660F771F881F991F1AF0BA95D0
S11318E0C9F714C0B13091F00E94160DB1E008950B
S11318F00C94160D672F782F8827B85F39F0B93FFD
S1131900CCF3869577956795B395D9F73EF4909582
S11319108095709561957F4F8F4F9F4F0895E89400
S113192009C097FB3EF490958095709561957F4F23
S11319308F4F9F4F9923A9F0F92F96E9BB279395D1
S1131940F695879577956795B795F111F8CFFAF4E1
S1131950BB0F11F460FF1BC06F5F7F4F8F4F9F4F12
S113196016C0882311F096E911C0772321F09EE870
S1131970872F762F05C0662371F096E8862F70E0D6
S113198060E02AF09A95660F771F881FDAF7880FB0
S11319909695879597F9089597F99F6780E870E081
S11319A060E008959FEF80EC089500240A941616D1
S11319B0170618060906089500240A941216130639
S11319C0140605060895092E0394000C11F48823C7
S11319D052F0BB0F40F4BF2B11F460FF04C06F5FE3
S11319E07F4F8F4F9F4F089557FD9058440F551FB9
S11319F059F05F3F71F04795880F97FB991F61F08D
S1131A009F3F79F087950895121613061406551F03
S1131A10F2CF4695F1DF08C0161617061806991F6F
S1131A20F1CF86957105610508940895E894BB2764
S1131A3066277727CB0197F908950E94FC0CA8F13B
S1131A409E57B0F1985160F039F1983070F5092E35
S1131A509927660F771F881F991F0A94D1F71CC016
S1131A60BB27993F4CF4B111B1E0B62B672F782F07
S1131A708827985FB1F708C0869577956795B795DD
S1131A8008F4B1609395C1F7BB0F30F411F460FF13
S1131A9003C06F5F7F4F8F4F3EF490958095709594
S1131AA061957F4F8F4F9F4F089568940C94170D45
S1131AB00C94160D0E946D0D0C94E30C0E94D50C31
S1131AC038F00E94DC0C20F0952311F00C94CC0C1F
S1131AD00C94D20C11240C94170D0E94F40C70F386
S1131AE0959FC1F3950F50E0551F629FF001729FBF
S1131AF0BB27F00DB11D639FAA27F00DB11DAA1FCE
S1131B00649F6627B00DA11D661F829F2227B00D1A
S1131B10A11D621F739FB00DA11D621F839FA00DA5
S1131B20611D221F749F3327A00D611D231F849FF5
S1131B30600D211D822F762F6A2F11249F5750404C
S1131B409AF0F1F088234AF0EE0FFF1FBB1F661FC7
S1131B50771F881F91505040A9F79E3F510580F090
S1131B600C94CC0C0C94170D5F3FE4F3983ED4F323
S1131B70869577956795B795F795E7959F5FC1F734
S1131B80FE2B880F911D9695879597F90895A1E2EC
S1131B901A2EAA1BBB1BFD010DC0AA1FBB1FEE1FE3
S1131BA0FF1FA217B307E407F50720F0A21BB30B2E
S1131BB0E40BF50B661F771F881F991F1A9469F7AA
S1131BC060957095809590959B01AC01BD01CF0106
S1131BD00895A29FB001B39FC001A39F700D811D02
S1131BE01124911DB29F700D811D1124911D089522
S1131BF0BB274A3031F4992322F4BDE290958195B4
S1131C009F4F0C94040EBB27FB015527AA27880F6E
S1131C10991FAA1FA41710F0A41B83955051B9F75C
S1131C20A05DAA3308F0A95DA193009779F7B111DB
S1131C30B1931192CB010C941D0EDC01FC01672FB2
S1131C4071917723E1F7329704C07C916D9370838F
S1111C506291AE17BF07C8F30895F894FFCF52
S1131C5E0A1F1F1F1F0E0400041F11111111111F43
S1131C6E041F111111111F1F041F1111111F1F1F0A
S1131C7E041F11111F1F1F1F041F111F1F1F1F1FC2
S1131C8E041F1F1F1F1F1F1F00000101050515152F
S1131C9E000400050204020500100000AE001B0043
S1131CAE0000000000000000000000000000000022
S1131CBE0000000000000000000000000000000012
S1131CCE0000000000000000000000000000000002
S1131CDE00000000000000000000000000000000F2
S1131CEE00000000000000000000000000000000E2
S1131CFE00000000000000000000000000000000D2
S1131D0E00000000000000000000000000000000C1
S1131D1E000000000000000000000000000032017E
S1131D2E32011B0000000000000000000000000053
S1131D3E0000000000000000000000000000000091
S1131D4E0000000000000000000000000000000081
S1131D5E0000000000000000000000000000000071
S1131D6E0000000000000000000000000000000061
S1131D7E0000000000000000000000000000000051
S1131D8E0000000000000000000000000000000041
S1131D9E0000000000000000000000000000000031
S1131DAE000056616C656F20536D61727420486F2C
S1131DBE6D65210054656D703A0048756D69643A1D
S1131DCE00250044697374616E63653A00636D2087
S1131DDE004C69676874696E67204C6576656C3A69
S1131DEE203220004C69676874696E67204C6576F2
S1131DFE656C3A203120004C69676874696E6720FF
S1131E0E4C6576656C3A203020004C4D2076616C22
S10D1E1E7565203D200020432000DC
S9030000FC
